{
  "_format": "hh-sol-artifact-1",
  "contractName": "CrowdFunding",
  "sourceName": "contracts/Crowd_Funding.sol",
  "abi": [
    {
      "inputs": [
        {
          "internalType": "address",
          "name": "_priceFeedAddress",
          "type": "address"
        }
      ],
      "stateMutability": "nonpayable",
      "type": "constructor"
    },
    {
      "anonymous": false,
      "inputs": [
        {
          "indexed": false,
          "internalType": "uint256",
          "name": "campaignId",
          "type": "uint256"
        },
        {
          "indexed": false,
          "internalType": "address",
          "name": "creator",
          "type": "address"
        },
        {
          "indexed": false,
          "internalType": "uint256",
          "name": "goal",
          "type": "uint256"
        },
        {
          "indexed": false,
          "internalType": "uint256",
          "name": "deadline",
          "type": "uint256"
        },
        {
          "indexed": false,
          "internalType": "string",
          "name": "description",
          "type": "string"
        }
      ],
      "name": "CampaignCreated",
      "type": "event"
    },
    {
      "anonymous": false,
      "inputs": [
        {
          "indexed": false,
          "internalType": "uint256",
          "name": "campaignId",
          "type": "uint256"
        },
        {
          "indexed": false,
          "internalType": "address",
          "name": "contributor",
          "type": "address"
        },
        {
          "indexed": false,
          "internalType": "uint256",
          "name": "amount",
          "type": "uint256"
        }
      ],
      "name": "DonationMade",
      "type": "event"
    },
    {
      "anonymous": false,
      "inputs": [
        {
          "indexed": false,
          "internalType": "uint256",
          "name": "campaignId",
          "type": "uint256"
        },
        {
          "indexed": false,
          "internalType": "address",
          "name": "creator",
          "type": "address"
        },
        {
          "indexed": false,
          "internalType": "uint256",
          "name": "amount",
          "type": "uint256"
        }
      ],
      "name": "FundsWithdrawn",
      "type": "event"
    },
    {
      "anonymous": false,
      "inputs": [
        {
          "indexed": false,
          "internalType": "uint256",
          "name": "campaignId",
          "type": "uint256"
        },
        {
          "indexed": false,
          "internalType": "address",
          "name": "contributor",
          "type": "address"
        },
        {
          "indexed": false,
          "internalType": "uint256",
          "name": "amount",
          "type": "uint256"
        }
      ],
      "name": "RefundClaimed",
      "type": "event"
    },
    {
      "inputs": [],
      "name": "EthPrice",
      "outputs": [
        {
          "internalType": "int256",
          "name": "",
          "type": "int256"
        }
      ],
      "stateMutability": "view",
      "type": "function"
    },
    {
      "inputs": [
        {
          "internalType": "address",
          "name": "",
          "type": "address"
        }
      ],
      "name": "addressToCampaign",
      "outputs": [
        {
          "internalType": "address",
          "name": "creator",
          "type": "address"
        },
        {
          "internalType": "uint256",
          "name": "goal",
          "type": "uint256"
        },
        {
          "internalType": "uint256",
          "name": "min_donation",
          "type": "uint256"
        },
        {
          "internalType": "uint256",
          "name": "deadline",
          "type": "uint256"
        },
        {
          "internalType": "uint256",
          "name": "totalFunds",
          "type": "uint256"
        },
        {
          "internalType": "string",
          "name": "description",
          "type": "string"
        },
        {
          "internalType": "string",
          "name": "imageUrl",
          "type": "string"
        },
        {
          "internalType": "string",
          "name": "name",
          "type": "string"
        },
        {
          "internalType": "bool",
          "name": "goalReached",
          "type": "bool"
        },
        {
          "internalType": "bool",
          "name": "isClosed",
          "type": "bool"
        }
      ],
      "stateMutability": "view",
      "type": "function"
    },
    {
      "inputs": [
        {
          "internalType": "uint256",
          "name": "",
          "type": "uint256"
        }
      ],
      "name": "campaignIds",
      "outputs": [
        {
          "internalType": "uint256",
          "name": "",
          "type": "uint256"
        }
      ],
      "stateMutability": "view",
      "type": "function"
    },
    {
      "inputs": [
        {
          "internalType": "uint256",
          "name": "",
          "type": "uint256"
        }
      ],
      "name": "campaigns",
      "outputs": [
        {
          "internalType": "address",
          "name": "creator",
          "type": "address"
        },
        {
          "internalType": "uint256",
          "name": "goal",
          "type": "uint256"
        },
        {
          "internalType": "uint256",
          "name": "min_donation",
          "type": "uint256"
        },
        {
          "internalType": "uint256",
          "name": "deadline",
          "type": "uint256"
        },
        {
          "internalType": "uint256",
          "name": "totalFunds",
          "type": "uint256"
        },
        {
          "internalType": "string",
          "name": "description",
          "type": "string"
        },
        {
          "internalType": "string",
          "name": "imageUrl",
          "type": "string"
        },
        {
          "internalType": "string",
          "name": "name",
          "type": "string"
        },
        {
          "internalType": "bool",
          "name": "goalReached",
          "type": "bool"
        },
        {
          "internalType": "bool",
          "name": "isClosed",
          "type": "bool"
        }
      ],
      "stateMutability": "view",
      "type": "function"
    },
    {
      "inputs": [
        {
          "internalType": "uint256",
          "name": "campaignId",
          "type": "uint256"
        }
      ],
      "name": "claimRefund",
      "outputs": [],
      "stateMutability": "nonpayable",
      "type": "function"
    },
    {
      "inputs": [
        {
          "internalType": "uint256",
          "name": "campaignId",
          "type": "uint256"
        }
      ],
      "name": "contribute",
      "outputs": [],
      "stateMutability": "payable",
      "type": "function"
    },
    {
      "inputs": [
        {
          "internalType": "uint256",
          "name": "usdAmount",
          "type": "uint256"
        }
      ],
      "name": "convertUSDToWei",
      "outputs": [
        {
          "internalType": "uint256",
          "name": "",
          "type": "uint256"
        }
      ],
      "stateMutability": "view",
      "type": "function"
    },
    {
      "inputs": [
        {
          "internalType": "uint256",
          "name": "weiAmount",
          "type": "uint256"
        }
      ],
      "name": "convertWeiToUSD",
      "outputs": [
        {
          "internalType": "uint256",
          "name": "",
          "type": "uint256"
        }
      ],
      "stateMutability": "view",
      "type": "function"
    },
    {
      "inputs": [
        {
          "internalType": "string",
          "name": "_name",
          "type": "string"
        },
        {
          "internalType": "string",
          "name": "_description",
          "type": "string"
        },
        {
          "internalType": "uint256",
          "name": "_goal",
          "type": "uint256"
        },
        {
          "internalType": "uint256",
          "name": "_duration",
          "type": "uint256"
        },
        {
          "internalType": "uint256",
          "name": "_min_donation",
          "type": "uint256"
        },
        {
          "internalType": "string",
          "name": "_imageUrl",
          "type": "string"
        }
      ],
      "name": "createCampaign",
      "outputs": [],
      "stateMutability": "nonpayable",
      "type": "function"
    },
    {
      "inputs": [
        {
          "internalType": "uint256",
          "name": "_etherAmount",
          "type": "uint256"
        }
      ],
      "name": "etherToWei",
      "outputs": [
        {
          "internalType": "uint256",
          "name": "",
          "type": "uint256"
        }
      ],
      "stateMutability": "pure",
      "type": "function"
    },
    {
      "inputs": [
        {
          "internalType": "uint256",
          "name": "campaignId",
          "type": "uint256"
        }
      ],
      "name": "getCampaignByIndex",
      "outputs": [
        {
          "components": [
            {
              "internalType": "address",
              "name": "creator",
              "type": "address"
            },
            {
              "internalType": "uint256",
              "name": "goal",
              "type": "uint256"
            },
            {
              "internalType": "uint256",
              "name": "min_donation",
              "type": "uint256"
            },
            {
              "internalType": "uint256",
              "name": "deadline",
              "type": "uint256"
            },
            {
              "internalType": "uint256",
              "name": "totalFunds",
              "type": "uint256"
            },
            {
              "internalType": "string",
              "name": "description",
              "type": "string"
            },
            {
              "internalType": "string",
              "name": "imageUrl",
              "type": "string"
            },
            {
              "internalType": "string",
              "name": "name",
              "type": "string"
            },
            {
              "internalType": "bool",
              "name": "goalReached",
              "type": "bool"
            },
            {
              "internalType": "bool",
              "name": "isClosed",
              "type": "bool"
            },
            {
              "internalType": "uint256[]",
              "name": "donations",
              "type": "uint256[]"
            },
            {
              "internalType": "address[]",
              "name": "donors",
              "type": "address[]"
            }
          ],
          "internalType": "struct CrowdFunding.Campaign",
          "name": "",
          "type": "tuple"
        }
      ],
      "stateMutability": "view",
      "type": "function"
    },
    {
      "inputs": [
        {
          "internalType": "uint256",
          "name": "campaignId",
          "type": "uint256"
        }
      ],
      "name": "getDonorsAndDonations",
      "outputs": [
        {
          "internalType": "address[]",
          "name": "",
          "type": "address[]"
        },
        {
          "internalType": "uint256[]",
          "name": "",
          "type": "uint256[]"
        }
      ],
      "stateMutability": "view",
      "type": "function"
    },
    {
      "inputs": [],
      "name": "getLatestPrice",
      "outputs": [
        {
          "internalType": "int256",
          "name": "",
          "type": "int256"
        }
      ],
      "stateMutability": "view",
      "type": "function"
    },
    {
      "inputs": [
        {
          "internalType": "uint256",
          "name": "offset",
          "type": "uint256"
        },
        {
          "internalType": "uint256",
          "name": "limit",
          "type": "uint256"
        }
      ],
      "name": "getPaginatedCampaigns",
      "outputs": [
        {
          "components": [
            {
              "internalType": "address",
              "name": "creator",
              "type": "address"
            },
            {
              "internalType": "uint256",
              "name": "goal",
              "type": "uint256"
            },
            {
              "internalType": "uint256",
              "name": "min_donation",
              "type": "uint256"
            },
            {
              "internalType": "uint256",
              "name": "deadline",
              "type": "uint256"
            },
            {
              "internalType": "uint256",
              "name": "totalFunds",
              "type": "uint256"
            },
            {
              "internalType": "string",
              "name": "description",
              "type": "string"
            },
            {
              "internalType": "string",
              "name": "imageUrl",
              "type": "string"
            },
            {
              "internalType": "string",
              "name": "name",
              "type": "string"
            },
            {
              "internalType": "bool",
              "name": "goalReached",
              "type": "bool"
            },
            {
              "internalType": "bool",
              "name": "isClosed",
              "type": "bool"
            },
            {
              "internalType": "uint256[]",
              "name": "donations",
              "type": "uint256[]"
            },
            {
              "internalType": "address[]",
              "name": "donors",
              "type": "address[]"
            }
          ],
          "internalType": "struct CrowdFunding.Campaign[]",
          "name": "paginatedCampaigns",
          "type": "tuple[]"
        },
        {
          "internalType": "uint256",
          "name": "currentPage",
          "type": "uint256"
        },
        {
          "internalType": "uint256",
          "name": "totalPages",
          "type": "uint256"
        },
        {
          "internalType": "uint256",
          "name": "totalCampaigns",
          "type": "uint256"
        }
      ],
      "stateMutability": "view",
      "type": "function"
    },
    {
      "inputs": [
        {
          "internalType": "uint256",
          "name": "campaignId",
          "type": "uint256"
        }
      ],
      "name": "withdrawFunds",
      "outputs": [],
      "stateMutability": "nonpayable",
      "type": "function"
    }
  ],
  "bytecode": "0x608060405261001261008960201b60201c565b60035534801561002157600080fd5b506040516143473803806143478339818101604052810190610043919061019f565b806000806101000a81548173ffffffffffffffffffffffffffffffffffffffff021916908373ffffffffffffffffffffffffffffffffffffffff160217905550506103bd565b60008060008054906101000a900473ffffffffffffffffffffffffffffffffffffffff1673ffffffffffffffffffffffffffffffffffffffff1663feaf968c6040518163ffffffff1660e01b815260040160a060405180830381865afa1580156100f7573d6000803e3d6000fd5b505050506040513d601f19601f8201168201806040525081019061011b919061027a565b5050509150506000620f4240826101329190610353565b9050809250505090565b600080fd5b600073ffffffffffffffffffffffffffffffffffffffff82169050919050565b600061016c82610141565b9050919050565b61017c81610161565b811461018757600080fd5b50565b60008151905061019981610173565b92915050565b6000602082840312156101b5576101b461013c565b5b60006101c38482850161018a565b91505092915050565b600069ffffffffffffffffffff82169050919050565b6101eb816101cc565b81146101f657600080fd5b50565b600081519050610208816101e2565b92915050565b6000819050919050565b6102218161020e565b811461022c57600080fd5b50565b60008151905061023e81610218565b92915050565b6000819050919050565b61025781610244565b811461026257600080fd5b50565b6000815190506102748161024e565b92915050565b600080600080600060a086880312156102965761029561013c565b5b60006102a4888289016101f9565b95505060206102b58882890161022f565b94505060406102c688828901610265565b93505060606102d788828901610265565b92505060806102e8888289016101f9565b9150509295509295909350565b7f4e487b7100000000000000000000000000000000000000000000000000000000600052601260045260246000fd5b7f4e487b7100000000000000000000000000000000000000000000000000000000600052601160045260246000fd5b600061035e8261020e565b91506103698361020e565b925082610379576103786102f5565b5b600160000383147f8000000000000000000000000000000000000000000000000000000000000000831416156103b2576103b1610324565b5b828205905092915050565b613f7b806103cc6000396000f3fe6080604052600436106100e85760003560e01c806371a236981161008a578063c1cbbca711610059578063c1cbbca714610342578063d8916bb91461035e578063df1902631461039b578063f8a31394146103d8576100e8565b806371a236981461025f57806385349b9c1461029d5780638e15f473146102da578063b369359d14610305576100e8565b806325b0e5a2116100c657806325b0e5a2146101a25780632cc812bc146101e25780635b7baf641461020d5780636b047df414610236576100e8565b8063141961bc146100ed578063155dd5ee14610133578063195e9a341461015c575b600080fd5b3480156100f957600080fd5b50610114600480360381019061010f919061260a565b610415565b60405161012a9a99989796959493929190612732565b60405180910390f35b34801561013f57600080fd5b5061015a6004803603810190610155919061260a565b61064b565b005b34801561016857600080fd5b50610183600480360381019061017e919061280f565b610938565b6040516101999a99989796959493929190612732565b60405180910390f35b3480156101ae57600080fd5b506101c960048036038101906101c4919061283c565b610b5e565b6040516101d99493929190612c33565b60405180910390f35b3480156101ee57600080fd5b506101f76112ab565b6040516102049190612c98565b60405180910390f35b34801561021957600080fd5b50610234600480360381019061022f919061260a565b6112b1565b005b34801561024257600080fd5b5061025d60048036038101906102589190612de8565b61161e565b005b34801561026b57600080fd5b506102866004803603810190610281919061260a565b611b18565b604051610294929190612fa7565b60405180910390f35b3480156102a957600080fd5b506102c460048036038101906102bf919061260a565b611c2d565b6040516102d19190612fde565b60405180910390f35b3480156102e657600080fd5b506102ef611cbc565b6040516102fc9190612c98565b60405180910390f35b34801561031157600080fd5b5061032c6004803603810190610327919061260a565b611d6f565b6040516103399190612fde565b60405180910390f35b61035c6004803603810190610357919061260a565b611d93565b005b34801561036a57600080fd5b506103856004803603810190610380919061260a565b611fd1565b6040516103929190612fde565b60405180910390f35b3480156103a757600080fd5b506103c260048036038101906103bd919061260a565b611fee565b6040516103cf9190612fde565b60405180910390f35b3480156103e457600080fd5b506103ff60048036038101906103fa919061260a565b61207d565b60405161040c9190613119565b60405180910390f35b6001818154811061042557600080fd5b90600052602060002090600b02016000915090508060000160009054906101000a900473ffffffffffffffffffffffffffffffffffffffff16908060010154908060020154908060030154908060040154908060050180546104869061316a565b80601f01602080910402602001604051908101604052809291908181526020018280546104b29061316a565b80156104ff5780601f106104d4576101008083540402835291602001916104ff565b820191906000526020600020905b8154815290600101906020018083116104e257829003601f168201915b5050505050908060060180546105149061316a565b80601f01602080910402602001604051908101604052809291908181526020018280546105409061316a565b801561058d5780601f106105625761010080835404028352916020019161058d565b820191906000526020600020905b81548152906001019060200180831161057057829003601f168201915b5050505050908060070180546105a29061316a565b80601f01602080910402602001604051908101604052809291908181526020018280546105ce9061316a565b801561061b5780601f106105f05761010080835404028352916020019161061b565b820191906000526020600020905b8154815290600101906020018083116105fe57829003601f168201915b5050505050908060080160009054906101000a900460ff16908060080160019054906101000a900460ff1690508a565b803373ffffffffffffffffffffffffffffffffffffffff16600182815481106106775761067661319b565b5b90600052602060002090600b020160000160009054906101000a900473ffffffffffffffffffffffffffffffffffffffff1673ffffffffffffffffffffffffffffffffffffffff16146106ff576040517f08c379a00000000000000000000000000000000000000000000000000000000081526004016106f69061323c565b60405180910390fd5b6000600183815481106107155761071461319b565b5b90600052602060002090600b020190508060080160009054906101000a900460ff16610776576040517f08c379a000000000000000000000000000000000000000000000000000000000815260040161076d906132a8565b60405180910390fd5b8060080160019054906101000a900460ff16156107c8576040517f08c379a00000000000000000000000000000000000000000000000000000000081526004016107bf90613314565b60405180910390fd5b60018160080160016101000a81548160ff021916908315150217905550600081600401549050600082600401819055506000826003018190555060008260000160009054906101000a900473ffffffffffffffffffffffffffffffffffffffff1673ffffffffffffffffffffffffffffffffffffffff168260405161084c90613365565b60006040518083038185875af1925050503d8060008114610889576040519150601f19603f3d011682016040523d82523d6000602084013e61088e565b606091505b50509050806108d2576040517f08c379a00000000000000000000000000000000000000000000000000000000081526004016108c9906133c6565b60405180910390fd5b7ff440aec6b52895984d061d622e6edeba6210f7c3e059be920663140c084560d7858460000160009054906101000a900473ffffffffffffffffffffffffffffffffffffffff1684604051610929939291906133e6565b60405180910390a15050505050565b60046020528060005260406000206000915090508060000160009054906101000a900473ffffffffffffffffffffffffffffffffffffffff16908060010154908060020154908060030154908060040154908060050180546109999061316a565b80601f01602080910402602001604051908101604052809291908181526020018280546109c59061316a565b8015610a125780601f106109e757610100808354040283529160200191610a12565b820191906000526020600020905b8154815290600101906020018083116109f557829003601f168201915b505050505090806006018054610a279061316a565b80601f0160208091040260200160405190810160405280929190818152602001828054610a539061316a565b8015610aa05780601f10610a7557610100808354040283529160200191610aa0565b820191906000526020600020905b815481529060010190602001808311610a8357829003601f168201915b505050505090806007018054610ab59061316a565b80601f0160208091040260200160405190810160405280929190818152602001828054610ae19061316a565b8015610b2e5780601f10610b0357610100808354040283529160200191610b2e565b820191906000526020600020905b815481529060010190602001808311610b1157829003601f168201915b5050505050908060080160009054906101000a900460ff16908060080160019054906101000a900460ff1690508a565b60606000806000806000905060005b600180549050811015610be457600060018281548110610b9057610b8f61319b565b5b90600052602060002090600b020190508060080160019054906101000a900460ff16158015610bc25750806003015442105b15610bd6578280610bd29061344c565b9350505b508080600101915050610b6d565b50808710610c27576040517f08c379a0000000000000000000000000000000000000000000000000000000008152600401610c1e906134e0565b60405180910390fd5b8091508582610c36919061352f565b925060008683610c469190613560565b14610c5a578280610c569061344c565b9350505b60018688610c68919061352f565b610c729190613591565b935060008167ffffffffffffffff811115610c9057610c8f612cbd565b5b604051908082528060200260200182016040528015610cc957816020015b610cb6612451565b815260200190600190039081610cae5790505b5090506000805b6001805490508110156110c257600060018281548110610cf357610cf261319b565b5b90600052602060002090600b020190508060080160019054906101000a900460ff16158015610d255750806003015442105b156110b45780604051806101800160405290816000820160009054906101000a900473ffffffffffffffffffffffffffffffffffffffff1673ffffffffffffffffffffffffffffffffffffffff1673ffffffffffffffffffffffffffffffffffffffff16815260200160018201548152602001600282015481526020016003820154815260200160048201548152602001600582018054610dc59061316a565b80601f0160208091040260200160405190810160405280929190818152602001828054610df19061316a565b8015610e3e5780601f10610e1357610100808354040283529160200191610e3e565b820191906000526020600020905b815481529060010190602001808311610e2157829003601f168201915b50505050508152602001600682018054610e579061316a565b80601f0160208091040260200160405190810160405280929190818152602001828054610e839061316a565b8015610ed05780601f10610ea557610100808354040283529160200191610ed0565b820191906000526020600020905b815481529060010190602001808311610eb357829003601f168201915b50505050508152602001600782018054610ee99061316a565b80601f0160208091040260200160405190810160405280929190818152602001828054610f159061316a565b8015610f625780601f10610f3757610100808354040283529160200191610f62565b820191906000526020600020905b815481529060010190602001808311610f4557829003601f168201915b505050505081526020016008820160009054906101000a900460ff161515151581526020016008820160019054906101000a900460ff1615151515815260200160098201805480602002602001604051908101604052809291908181526020018280548015610ff057602002820191906000526020600020905b815481526020019060010190808311610fdc575b50505050508152602001600a820180548060200260200160405190810160405280929190818152602001828054801561107e57602002820191906000526020600020905b8160009054906101000a900473ffffffffffffffffffffffffffffffffffffffff1673ffffffffffffffffffffffffffffffffffffffff1681526020019060010190808311611034575b50505050508152505084848151811061109a5761109961319b565b5b602002602001018190525082806110b09061344c565b9350505b508080600101915050610cd0565b5060005b838110156111c05760006001826110dd9190613591565b90505b848110156111b2578381815181106110fb576110fa61319b565b5b60200260200101516060015184838151811061111a5761111961319b565b5b60200260200101516060015111156111a55760008483815181106111415761114061319b565b5b6020026020010151905084828151811061115e5761115d61319b565b5b60200260200101518584815181106111795761117861319b565b5b6020026020010181905250808583815181106111985761119761319b565b5b6020026020010181905250505b80806001019150506110e0565b5080806001019150506110c6565b506000888a6111cf9190613591565b9050848111156111dd578490505b89816111e991906135c5565b67ffffffffffffffff81111561120257611201612cbd565b5b60405190808252806020026020018201604052801561123b57816020015b611228612451565b8152602001906001900390816112205790505b50975060008a90505b8181101561129d5783818151811061125f5761125e61319b565b5b6020026020010151898c8361127491906135c5565b815181106112855761128461319b565b5b60200260200101819052508080600101915050611244565b505050505092959194509250565b60035481565b60018054905081106112f8576040517f08c379a00000000000000000000000000000000000000000000000000000000081526004016112ef90613645565b60405180910390fd5b60006001828154811061130e5761130d61319b565b5b90600052602060002090600b020190508060030154421015611365576040517f08c379a000000000000000000000000000000000000000000000000000000000815260040161135c906136b1565b60405180910390fd5b8060080160009054906101000a900460ff16156113b7576040517f08c379a00000000000000000000000000000000000000000000000000000000081526004016113ae9061371d565b60405180910390fd5b8060080160019054906101000a900460ff1615611409576040517f08c379a000000000000000000000000000000000000000000000000000000000815260040161140090613314565b60405180910390fd5b60008060005b83600a01805490508110156114f7573373ffffffffffffffffffffffffffffffffffffffff1684600a01828154811061144b5761144a61319b565b5b9060005260206000200160009054906101000a900473ffffffffffffffffffffffffffffffffffffffff1673ffffffffffffffffffffffffffffffffffffffff16036114ea57600192508360090181815481106114ab576114aa61319b565b5b9060005260206000200154826114c19190613591565b915060008460090182815481106114db576114da61319b565b5b90600052602060002001819055505b808060010191505061140f565b5081611538576040517f08c379a000000000000000000000000000000000000000000000000000000000815260040161152f906137af565b60405180910390fd5b6000811161157b576040517f08c379a00000000000000000000000000000000000000000000000000000000081526004016115729061381b565b60405180910390fd5b3373ffffffffffffffffffffffffffffffffffffffff166108fc829081150290604051600060405180830381858888f193505050501580156115c1573d6000803e3d6000fd5b50808360040160008282546115d691906135c5565b925050819055507ff3f402280ef0a7905e124aa621b65eaeb2725c343e8b36d398ed78c29daf285c843383604051611610939291906133e6565b60405180910390a150505050565b60008411611661576040517f08c379a000000000000000000000000000000000000000000000000000000000815260040161165890613887565b60405180910390fd5b600083116116a4576040517f08c379a000000000000000000000000000000000000000000000000000000000815260040161169b906138f3565b60405180910390fd5b600083426116b29190613591565b905060006040518061018001604052803373ffffffffffffffffffffffffffffffffffffffff1681526020016116e788611fd1565b815260200185815260200183815260200160008152602001888152602001848152602001898152602001600015158152602001600015158152602001600067ffffffffffffffff81111561173e5761173d612cbd565b5b60405190808252806020026020018201604052801561176c5781602001602082028036833780820191505090505b508152602001600067ffffffffffffffff81111561178d5761178c612cbd565b5b6040519080825280602002602001820160405280156117bb5781602001602082028036833780820191505090505b50815250905060018190806001815401808255809150506001900390600052602060002090600b020160009091909190915060008201518160000160006101000a81548173ffffffffffffffffffffffffffffffffffffffff021916908373ffffffffffffffffffffffffffffffffffffffff1602179055506020820151816001015560408201518160020155606082015181600301556080820151816004015560a08201518160050190816118719190613abf565b5060c08201518160060190816118879190613abf565b5060e082015181600701908161189d9190613abf565b506101008201518160080160006101000a81548160ff0219169083151502179055506101208201518160080160016101000a81548160ff0219169083151502179055506101408201518160090190805190602001906118fd9291906124cc565b5061016082015181600a01908051906020019061191b929190612519565b50505080600460003373ffffffffffffffffffffffffffffffffffffffff1673ffffffffffffffffffffffffffffffffffffffff16815260200190815260200160002060008201518160000160006101000a81548173ffffffffffffffffffffffffffffffffffffffff021916908373ffffffffffffffffffffffffffffffffffffffff1602179055506020820151816001015560408201518160020155606082015181600301556080820151816004015560a08201518160050190816119e29190613abf565b5060c08201518160060190816119f89190613abf565b5060e0820151816007019081611a0e9190613abf565b506101008201518160080160006101000a81548160ff0219169083151502179055506101208201518160080160016101000a81548160ff021916908315150217905550610140820151816009019080519060200190611a6e9291906124cc565b5061016082015181600a019080519060200190611a8c929190612519565b50905050600060018080549050611aa391906135c5565b905060028190806001815401808255809150506001900390600052602060002001600090919091909150557f2e64da7e06e88ccd84d69eccb21119ca81e40e5648611e89edfe888c8fa62597813389868c604051611b05959493929190613b91565b60405180910390a1505050505050505050565b606080600060018481548110611b3157611b3061319b565b5b90600052602060002090600b0201905080600a018160090181805480602002602001604051908101604052809291908181526020018280548015611bca57602002820191906000526020600020905b8160009054906101000a900473ffffffffffffffffffffffffffffffffffffffff1673ffffffffffffffffffffffffffffffffffffffff1681526020019060010190808311611b80575b5050505050915080805480602002602001604051908101604052809291908181526020018280548015611c1c57602002820191906000526020600020905b815481526020019060010190808311611c08575b505050505090509250925050915091565b600080611c38611cbc565b905060008113611c7d576040517f08c379a0000000000000000000000000000000000000000000000000000000008152600401611c7490613c37565b60405180910390fd5b600081606485611c8d9190613c57565b611c97919061352f565b90506000670de0b6b3a764000082611caf9190613c57565b9050809350505050919050565b60008060008054906101000a900473ffffffffffffffffffffffffffffffffffffffff1673ffffffffffffffffffffffffffffffffffffffff1663feaf968c6040518163ffffffff1660e01b815260040160a060405180830381865afa158015611d2a573d6000803e3d6000fd5b505050506040513d601f19601f82011682018060405250810190611d4e9190613d1c565b5050509150506000620f424082611d659190613d97565b9050809250505090565b60028181548110611d7f57600080fd5b906000526020600020016000915090505481565b806001805490508110611ddb576040517f08c379a0000000000000000000000000000000000000000000000000000000008152600401611dd290613645565b60405180910390fd5b60018181548110611def57611dee61319b565b5b90600052602060002090600b0201600301544210611e42576040517f08c379a0000000000000000000000000000000000000000000000000000000008152600401611e3990613e4d565b60405180910390fd5b600060018381548110611e5857611e5761319b565b5b90600052602060002090600b020190508060080160009054906101000a900460ff16611eb9576040517f08c379a0000000000000000000000000000000000000000000000000000000008152600401611eb090613eb9565b60405180910390fd5b34816004016000828254611ecd9190613591565b925050819055508060090134908060018154018082558091505060019003906000526020600020016000909190919091505580600a01339080600181540180825580915050600190039060005260206000200160009091909190916101000a81548173ffffffffffffffffffffffffffffffffffffffff021916908373ffffffffffffffffffffffffffffffffffffffff1602179055507fe555da28bdb778f65d22794d88927ebaeca03f7de9d1b7d39245bc8fb5ca078a833334604051611f97939291906133e6565b60405180910390a18060010154816004015410611fcc5760018160080160006101000a81548160ff0219169083151502179055505b505050565b6000670de0b6b3a764000082611fe79190613c57565b9050919050565b600080611ff9611cbc565b90506000811361203e576040517f08c379a000000000000000000000000000000000000000000000000000000000815260040161203590613c37565b60405180910390fd5b6000670de0b6b3a764000084612054919061352f565b90506000606483836120669190613c57565b612070919061352f565b9050809350505050919050565b612085612451565b60018054905082106120cc576040517f08c379a00000000000000000000000000000000000000000000000000000000081526004016120c390613f25565b60405180910390fd5b600182815481106120e0576120df61319b565b5b90600052602060002090600b0201604051806101800160405290816000820160009054906101000a900473ffffffffffffffffffffffffffffffffffffffff1673ffffffffffffffffffffffffffffffffffffffff1673ffffffffffffffffffffffffffffffffffffffff168152602001600182015481526020016002820154815260200160038201548152602001600482015481526020016005820180546121889061316a565b80601f01602080910402602001604051908101604052809291908181526020018280546121b49061316a565b80156122015780601f106121d657610100808354040283529160200191612201565b820191906000526020600020905b8154815290600101906020018083116121e457829003601f168201915b5050505050815260200160068201805461221a9061316a565b80601f01602080910402602001604051908101604052809291908181526020018280546122469061316a565b80156122935780601f1061226857610100808354040283529160200191612293565b820191906000526020600020905b81548152906001019060200180831161227657829003601f168201915b505050505081526020016007820180546122ac9061316a565b80601f01602080910402602001604051908101604052809291908181526020018280546122d89061316a565b80156123255780601f106122fa57610100808354040283529160200191612325565b820191906000526020600020905b81548152906001019060200180831161230857829003601f168201915b505050505081526020016008820160009054906101000a900460ff161515151581526020016008820160019054906101000a900460ff16151515158152602001600982018054806020026020016040519081016040528092919081815260200182805480156123b357602002820191906000526020600020905b81548152602001906001019080831161239f575b50505050508152602001600a820180548060200260200160405190810160405280929190818152602001828054801561244157602002820191906000526020600020905b8160009054906101000a900473ffffffffffffffffffffffffffffffffffffffff1673ffffffffffffffffffffffffffffffffffffffff16815260200190600101908083116123f7575b5050505050815250509050919050565b604051806101800160405280600073ffffffffffffffffffffffffffffffffffffffff1681526020016000815260200160008152602001600081526020016000815260200160608152602001606081526020016060815260200160001515815260200160001515815260200160608152602001606081525090565b828054828255906000526020600020908101928215612508579160200282015b828111156125075782518255916020019190600101906124ec565b5b50905061251591906125a3565b5090565b828054828255906000526020600020908101928215612592579160200282015b828111156125915782518260006101000a81548173ffffffffffffffffffffffffffffffffffffffff021916908373ffffffffffffffffffffffffffffffffffffffff16021790555091602001919060010190612539565b5b50905061259f91906125a3565b5090565b5b808211156125bc5760008160009055506001016125a4565b5090565b6000604051905090565b600080fd5b600080fd5b6000819050919050565b6125e7816125d4565b81146125f257600080fd5b50565b600081359050612604816125de565b92915050565b6000602082840312156126205761261f6125ca565b5b600061262e848285016125f5565b91505092915050565b600073ffffffffffffffffffffffffffffffffffffffff82169050919050565b600061266282612637565b9050919050565b61267281612657565b82525050565b612681816125d4565b82525050565b600081519050919050565b600082825260208201905092915050565b60005b838110156126c15780820151818401526020810190506126a6565b60008484015250505050565b6000601f19601f8301169050919050565b60006126e982612687565b6126f38185612692565b93506127038185602086016126a3565b61270c816126cd565b840191505092915050565b60008115159050919050565b61272c81612717565b82525050565b600061014082019050612748600083018d612669565b612755602083018c612678565b612762604083018b612678565b61276f606083018a612678565b61277c6080830189612678565b81810360a083015261278e81886126de565b905081810360c08301526127a281876126de565b905081810360e08301526127b681866126de565b90506127c6610100830185612723565b6127d4610120830184612723565b9b9a5050505050505050505050565b6127ec81612657565b81146127f757600080fd5b50565b600081359050612809816127e3565b92915050565b600060208284031215612825576128246125ca565b5b6000612833848285016127fa565b91505092915050565b60008060408385031215612853576128526125ca565b5b6000612861858286016125f5565b9250506020612872858286016125f5565b9150509250929050565b600081519050919050565b600082825260208201905092915050565b6000819050602082019050919050565b6128b181612657565b82525050565b6128c0816125d4565b82525050565b600082825260208201905092915050565b60006128e282612687565b6128ec81856128c6565b93506128fc8185602086016126a3565b612905816126cd565b840191505092915050565b61291981612717565b82525050565b600081519050919050565b600082825260208201905092915050565b6000819050602082019050919050565b600061295783836128b7565b60208301905092915050565b6000602082019050919050565b600061297b8261291f565b612985818561292a565b93506129908361293b565b8060005b838110156129c15781516129a8888261294b565b97506129b383612963565b925050600181019050612994565b5085935050505092915050565b600081519050919050565b600082825260208201905092915050565b6000819050602082019050919050565b6000612a0683836128a8565b60208301905092915050565b6000602082019050919050565b6000612a2a826129ce565b612a3481856129d9565b9350612a3f836129ea565b8060005b83811015612a70578151612a5788826129fa565b9750612a6283612a12565b925050600181019050612a43565b5085935050505092915050565b600061018083016000830151612a9660008601826128a8565b506020830151612aa960208601826128b7565b506040830151612abc60408601826128b7565b506060830151612acf60608601826128b7565b506080830151612ae260808601826128b7565b5060a083015184820360a0860152612afa82826128d7565b91505060c083015184820360c0860152612b1482826128d7565b91505060e083015184820360e0860152612b2e82826128d7565b915050610100830151612b45610100860182612910565b50610120830151612b5a610120860182612910565b50610140830151848203610140860152612b748282612970565b915050610160830151848203610160860152612b908282612a1f565b9150508091505092915050565b6000612ba98383612a7d565b905092915050565b6000602082019050919050565b6000612bc98261287c565b612bd38185612887565b935083602082028501612be585612898565b8060005b85811015612c215784840389528151612c028582612b9d565b9450612c0d83612bb1565b925060208a01995050600181019050612be9565b50829750879550505050505092915050565b60006080820190508181036000830152612c4d8187612bbe565b9050612c5c6020830186612678565b612c696040830185612678565b612c766060830184612678565b95945050505050565b6000819050919050565b612c9281612c7f565b82525050565b6000602082019050612cad6000830184612c89565b92915050565b600080fd5b600080fd5b7f4e487b7100000000000000000000000000000000000000000000000000000000600052604160045260246000fd5b612cf5826126cd565b810181811067ffffffffffffffff82111715612d1457612d13612cbd565b5b80604052505050565b6000612d276125c0565b9050612d338282612cec565b919050565b600067ffffffffffffffff821115612d5357612d52612cbd565b5b612d5c826126cd565b9050602081019050919050565b82818337600083830152505050565b6000612d8b612d8684612d38565b612d1d565b905082815260208101848484011115612da757612da6612cb8565b5b612db2848285612d69565b509392505050565b600082601f830112612dcf57612dce612cb3565b5b8135612ddf848260208601612d78565b91505092915050565b60008060008060008060c08789031215612e0557612e046125ca565b5b600087013567ffffffffffffffff811115612e2357612e226125cf565b5b612e2f89828a01612dba565b965050602087013567ffffffffffffffff811115612e5057612e4f6125cf565b5b612e5c89828a01612dba565b9550506040612e6d89828a016125f5565b9450506060612e7e89828a016125f5565b9350506080612e8f89828a016125f5565b92505060a087013567ffffffffffffffff811115612eb057612eaf6125cf565b5b612ebc89828a01612dba565b9150509295509295509295565b600082825260208201905092915050565b6000612ee5826129ce565b612eef8185612ec9565b9350612efa836129ea565b8060005b83811015612f2b578151612f1288826129fa565b9750612f1d83612a12565b925050600181019050612efe565b5085935050505092915050565b600082825260208201905092915050565b6000612f548261291f565b612f5e8185612f38565b9350612f698361293b565b8060005b83811015612f9a578151612f81888261294b565b9750612f8c83612963565b925050600181019050612f6d565b5085935050505092915050565b60006040820190508181036000830152612fc18185612eda565b90508181036020830152612fd58184612f49565b90509392505050565b6000602082019050612ff36000830184612678565b92915050565b60006101808301600083015161301260008601826128a8565b50602083015161302560208601826128b7565b50604083015161303860408601826128b7565b50606083015161304b60608601826128b7565b50608083015161305e60808601826128b7565b5060a083015184820360a086015261307682826128d7565b91505060c083015184820360c086015261309082826128d7565b91505060e083015184820360e08601526130aa82826128d7565b9150506101008301516130c1610100860182612910565b506101208301516130d6610120860182612910565b506101408301518482036101408601526130f08282612970565b91505061016083015184820361016086015261310c8282612a1f565b9150508091505092915050565b600060208201905081810360008301526131338184612ff9565b905092915050565b7f4e487b7100000000000000000000000000000000000000000000000000000000600052602260045260246000fd5b6000600282049050600182168061318257607f821691505b6020821081036131955761319461313b565b5b50919050565b7f4e487b7100000000000000000000000000000000000000000000000000000000600052603260045260246000fd5b7f4f6e6c79207468652063616d706169676e2063726561746f722063616e20706560008201527f72666f726d207468697320616374696f6e000000000000000000000000000000602082015250565b6000613226603183612692565b9150613231826131ca565b604082019050919050565b6000602082019050818103600083015261325581613219565b9050919050565b7f476f616c206e6f74207265616368656400000000000000000000000000000000600082015250565b6000613292601083612692565b915061329d8261325c565b602082019050919050565b600060208201905081810360008301526132c181613285565b9050919050565b7f43616d706169676e20697320636c6f7365640000000000000000000000000000600082015250565b60006132fe601283612692565b9150613309826132c8565b602082019050919050565b6000602082019050818103600083015261332d816132f1565b9050919050565b600081905092915050565b50565b600061334f600083613334565b915061335a8261333f565b600082019050919050565b600061337082613342565b9150819050919050565b7f4661696c656420746f2073656e64204574686572000000000000000000000000600082015250565b60006133b0601483612692565b91506133bb8261337a565b602082019050919050565b600060208201905081810360008301526133df816133a3565b9050919050565b60006060820190506133fb6000830186612678565b6134086020830185612669565b6134156040830184612678565b949350505050565b7f4e487b7100000000000000000000000000000000000000000000000000000000600052601160045260246000fd5b6000613457826125d4565b91507fffffffffffffffffffffffffffffffffffffffffffffffffffffffffffffffff82036134895761348861341d565b5b600182019050919050565b7f4f6666736574206f7574206f6620626f756e6473000000000000000000000000600082015250565b60006134ca601483612692565b91506134d582613494565b602082019050919050565b600060208201905081810360008301526134f9816134bd565b9050919050565b7f4e487b7100000000000000000000000000000000000000000000000000000000600052601260045260246000fd5b600061353a826125d4565b9150613545836125d4565b92508261355557613554613500565b5b828204905092915050565b600061356b826125d4565b9150613576836125d4565b92508261358657613585613500565b5b828206905092915050565b600061359c826125d4565b91506135a7836125d4565b92508282019050808211156135bf576135be61341d565b5b92915050565b60006135d0826125d4565b91506135db836125d4565b92508282039050818111156135f3576135f261341d565b5b92915050565b7f43616d706169676e20646f6573206e6f74206578697374000000000000000000600082015250565b600061362f601783612692565b915061363a826135f9565b602082019050919050565b6000602082019050818103600083015261365e81613622565b9050919050565b7f43616d706169676e20646561646c696e65206e6f742072656163686564000000600082015250565b600061369b601d83612692565b91506136a682613665565b602082019050919050565b600060208201905081810360008301526136ca8161368e565b9050919050565b7f476f616c20686173206265656e20726561636865640000000000000000000000600082015250565b6000613707601583612692565b9150613712826136d1565b602082019050919050565b60006020820190508181036000830152613736816136fa565b9050919050565b7f596f7520646964206e6f7420646f6e61746520746f20746869732063616d706160008201527f69676e0000000000000000000000000000000000000000000000000000000000602082015250565b6000613799602383612692565b91506137a48261373d565b604082019050919050565b600060208201905081810360008301526137c88161378c565b9050919050565b7f596f752068617665206e6f20646f6e6174696f6e20746f20726566756e640000600082015250565b6000613805601e83612692565b9150613810826137cf565b602082019050919050565b60006020820190508181036000830152613834816137f8565b9050919050565b7f476f616c206d7573742062652067726561746572207468616e20300000000000600082015250565b6000613871601b83612692565b915061387c8261383b565b602082019050919050565b600060208201905081810360008301526138a081613864565b9050919050565b7f4475726174696f6e206d7573742062652067726561746572207468616e203000600082015250565b60006138dd601f83612692565b91506138e8826138a7565b602082019050919050565b6000602082019050818103600083015261390c816138d0565b9050919050565b60008190508160005260206000209050919050565b60006020601f8301049050919050565b600082821b905092915050565b6000600883026139757fffffffffffffffffffffffffffffffffffffffffffffffffffffffffffffffff82613938565b61397f8683613938565b95508019841693508086168417925050509392505050565b6000819050919050565b60006139bc6139b76139b2846125d4565b613997565b6125d4565b9050919050565b6000819050919050565b6139d6836139a1565b6139ea6139e2826139c3565b848454613945565b825550505050565b600090565b6139ff6139f2565b613a0a8184846139cd565b505050565b5b81811015613a2e57613a236000826139f7565b600181019050613a10565b5050565b601f821115613a7357613a4481613913565b613a4d84613928565b81016020851015613a5c578190505b613a70613a6885613928565b830182613a0f565b50505b505050565b600082821c905092915050565b6000613a9660001984600802613a78565b1980831691505092915050565b6000613aaf8383613a85565b9150826002028217905092915050565b613ac882612687565b67ffffffffffffffff811115613ae157613ae0612cbd565b5b613aeb825461316a565b613af6828285613a32565b600060209050601f831160018114613b295760008415613b17578287015190505b613b218582613aa3565b865550613b89565b601f198416613b3786613913565b60005b82811015613b5f57848901518255600182019150602085019450602081019050613b3a565b86831015613b7c5784890151613b78601f891682613a85565b8355505b6001600288020188555050505b505050505050565b600060a082019050613ba66000830188612678565b613bb36020830187612669565b613bc06040830186612678565b613bcd6060830185612678565b8181036080830152613bdf81846126de565b90509695505050505050565b7f4661696c656420746f2066657463682045544820707269636500000000000000600082015250565b6000613c21601983612692565b9150613c2c82613beb565b602082019050919050565b60006020820190508181036000830152613c5081613c14565b9050919050565b6000613c62826125d4565b9150613c6d836125d4565b9250828202613c7b816125d4565b91508282048414831517613c9257613c9161341d565b5b5092915050565b600069ffffffffffffffffffff82169050919050565b613cb881613c99565b8114613cc357600080fd5b50565b600081519050613cd581613caf565b92915050565b613ce481612c7f565b8114613cef57600080fd5b50565b600081519050613d0181613cdb565b92915050565b600081519050613d16816125de565b92915050565b600080600080600060a08688031215613d3857613d376125ca565b5b6000613d4688828901613cc6565b9550506020613d5788828901613cf2565b9450506040613d6888828901613d07565b9350506060613d7988828901613d07565b9250506080613d8a88828901613cc6565b9150509295509295909350565b6000613da282612c7f565b9150613dad83612c7f565b925082613dbd57613dbc613500565b5b600160000383147f800000000000000000000000000000000000000000000000000000000000000083141615613df657613df561341d565b5b828205905092915050565b7f43616d706169676e20646561646c696e65206861732070617373656400000000600082015250565b6000613e37601c83612692565b9150613e4282613e01565b602082019050919050565b60006020820190508181036000830152613e6681613e2a565b9050919050565b7f476f616c20726561636865640000000000000000000000000000000000000000600082015250565b6000613ea3600c83612692565b9150613eae82613e6d565b602082019050919050565b60006020820190508181036000830152613ed281613e96565b9050919050565b7f43616d706169676e20696e646578206f7574206f6620626f756e647300000000600082015250565b6000613f0f601c83612692565b9150613f1a82613ed9565b602082019050919050565b60006020820190508181036000830152613f3e81613f02565b905091905056fea2646970667358221220d22d65225629cbf7c206a84fda233b839c2db4444d3f65853f8c070c7b9ed5e164736f6c634300081c0033",
  "linkReferences": {},
  "deployedLinkReferences": {}
}