{
  "_format": "hh-sol-artifact-1",
  "contractName": "CrowdFunding",
  "sourceName": "contracts/Crowd_Funding.sol",
  "abi": [
    {
      "inputs": [
        {
          "internalType": "address",
          "name": "_priceFeedAddress",
          "type": "address"
        }
      ],
      "stateMutability": "nonpayable",
      "type": "constructor"
    },
    {
      "anonymous": false,
      "inputs": [
        {
          "indexed": false,
          "internalType": "uint256",
          "name": "campaignId",
          "type": "uint256"
        },
        {
          "indexed": false,
          "internalType": "address",
          "name": "creator",
          "type": "address"
        },
        {
          "indexed": false,
          "internalType": "uint256",
          "name": "goal",
          "type": "uint256"
        },
        {
          "indexed": false,
          "internalType": "uint256",
          "name": "deadline",
          "type": "uint256"
        },
        {
          "indexed": false,
          "internalType": "string",
          "name": "description",
          "type": "string"
        }
      ],
      "name": "CampaignCreated",
      "type": "event"
    },
    {
      "anonymous": false,
      "inputs": [
        {
          "indexed": false,
          "internalType": "uint256",
          "name": "campaignId",
          "type": "uint256"
        },
        {
          "indexed": false,
          "internalType": "address",
          "name": "contributor",
          "type": "address"
        },
        {
          "indexed": false,
          "internalType": "uint256",
          "name": "amount",
          "type": "uint256"
        }
      ],
      "name": "DonationMade",
      "type": "event"
    },
    {
      "anonymous": false,
      "inputs": [
        {
          "indexed": false,
          "internalType": "uint256",
          "name": "campaignId",
          "type": "uint256"
        },
        {
          "indexed": false,
          "internalType": "address",
          "name": "creator",
          "type": "address"
        },
        {
          "indexed": false,
          "internalType": "uint256",
          "name": "amount",
          "type": "uint256"
        }
      ],
      "name": "FundsWithdrawn",
      "type": "event"
    },
    {
      "anonymous": false,
      "inputs": [
        {
          "indexed": false,
          "internalType": "uint256",
          "name": "campaignId",
          "type": "uint256"
        },
        {
          "indexed": false,
          "internalType": "address",
          "name": "contributor",
          "type": "address"
        },
        {
          "indexed": false,
          "internalType": "uint256",
          "name": "amount",
          "type": "uint256"
        }
      ],
      "name": "RefundClaimed",
      "type": "event"
    },
    {
      "inputs": [],
      "name": "EthPrice",
      "outputs": [
        {
          "internalType": "int256",
          "name": "",
          "type": "int256"
        }
      ],
      "stateMutability": "view",
      "type": "function"
    },
    {
      "inputs": [
        {
          "internalType": "address",
          "name": "",
          "type": "address"
        }
      ],
      "name": "addressToCampaign",
      "outputs": [
        {
          "internalType": "address",
          "name": "creator",
          "type": "address"
        },
        {
          "internalType": "uint256",
          "name": "goal",
          "type": "uint256"
        },
        {
          "internalType": "uint256",
          "name": "min_donation",
          "type": "uint256"
        },
        {
          "internalType": "uint256",
          "name": "deadline",
          "type": "uint256"
        },
        {
          "internalType": "uint256",
          "name": "totalFunds",
          "type": "uint256"
        },
        {
          "internalType": "string",
          "name": "description",
          "type": "string"
        },
        {
          "internalType": "string",
          "name": "imageUrl",
          "type": "string"
        },
        {
          "internalType": "string",
          "name": "name",
          "type": "string"
        },
        {
          "internalType": "bool",
          "name": "goalReached",
          "type": "bool"
        },
        {
          "internalType": "bool",
          "name": "isClosed",
          "type": "bool"
        }
      ],
      "stateMutability": "view",
      "type": "function"
    },
    {
      "inputs": [
        {
          "internalType": "uint256",
          "name": "",
          "type": "uint256"
        }
      ],
      "name": "campaignIds",
      "outputs": [
        {
          "internalType": "uint256",
          "name": "",
          "type": "uint256"
        }
      ],
      "stateMutability": "view",
      "type": "function"
    },
    {
      "inputs": [
        {
          "internalType": "uint256",
          "name": "",
          "type": "uint256"
        }
      ],
      "name": "campaigns",
      "outputs": [
        {
          "internalType": "address",
          "name": "creator",
          "type": "address"
        },
        {
          "internalType": "uint256",
          "name": "goal",
          "type": "uint256"
        },
        {
          "internalType": "uint256",
          "name": "min_donation",
          "type": "uint256"
        },
        {
          "internalType": "uint256",
          "name": "deadline",
          "type": "uint256"
        },
        {
          "internalType": "uint256",
          "name": "totalFunds",
          "type": "uint256"
        },
        {
          "internalType": "string",
          "name": "description",
          "type": "string"
        },
        {
          "internalType": "string",
          "name": "imageUrl",
          "type": "string"
        },
        {
          "internalType": "string",
          "name": "name",
          "type": "string"
        },
        {
          "internalType": "bool",
          "name": "goalReached",
          "type": "bool"
        },
        {
          "internalType": "bool",
          "name": "isClosed",
          "type": "bool"
        }
      ],
      "stateMutability": "view",
      "type": "function"
    },
    {
      "inputs": [
        {
          "internalType": "uint256",
          "name": "campaignId",
          "type": "uint256"
        }
      ],
      "name": "claimRefund",
      "outputs": [],
      "stateMutability": "nonpayable",
      "type": "function"
    },
    {
      "inputs": [
        {
          "internalType": "uint256",
          "name": "campaignId",
          "type": "uint256"
        }
      ],
      "name": "contribute",
      "outputs": [],
      "stateMutability": "payable",
      "type": "function"
    },
    {
      "inputs": [
        {
          "internalType": "uint256",
          "name": "usdAmount",
          "type": "uint256"
        }
      ],
      "name": "convertUSDToWei",
      "outputs": [
        {
          "internalType": "uint256",
          "name": "",
          "type": "uint256"
        }
      ],
      "stateMutability": "view",
      "type": "function"
    },
    {
      "inputs": [
        {
          "internalType": "uint256",
          "name": "weiAmount",
          "type": "uint256"
        }
      ],
      "name": "convertWeiToUSD",
      "outputs": [
        {
          "internalType": "uint256",
          "name": "",
          "type": "uint256"
        }
      ],
      "stateMutability": "view",
      "type": "function"
    },
    {
      "inputs": [
        {
          "internalType": "string",
          "name": "_name",
          "type": "string"
        },
        {
          "internalType": "string",
          "name": "_description",
          "type": "string"
        },
        {
          "internalType": "uint256",
          "name": "_goal",
          "type": "uint256"
        },
        {
          "internalType": "uint256",
          "name": "_duration",
          "type": "uint256"
        },
        {
          "internalType": "uint256",
          "name": "_min_donation",
          "type": "uint256"
        },
        {
          "internalType": "string",
          "name": "_imageUrl",
          "type": "string"
        }
      ],
      "name": "createCampaign",
      "outputs": [],
      "stateMutability": "nonpayable",
      "type": "function"
    },
    {
      "inputs": [
        {
          "internalType": "uint256",
          "name": "_etherAmount",
          "type": "uint256"
        }
      ],
      "name": "etherToWei",
      "outputs": [
        {
          "internalType": "uint256",
          "name": "",
          "type": "uint256"
        }
      ],
      "stateMutability": "view",
      "type": "function"
    },
    {
      "inputs": [
        {
          "internalType": "uint256",
          "name": "campaignId",
          "type": "uint256"
        }
      ],
      "name": "getCampaignByIndex",
      "outputs": [
        {
          "components": [
            {
              "internalType": "address",
              "name": "creator",
              "type": "address"
            },
            {
              "internalType": "uint256",
              "name": "goal",
              "type": "uint256"
            },
            {
              "internalType": "uint256",
              "name": "min_donation",
              "type": "uint256"
            },
            {
              "internalType": "uint256",
              "name": "deadline",
              "type": "uint256"
            },
            {
              "internalType": "uint256",
              "name": "totalFunds",
              "type": "uint256"
            },
            {
              "internalType": "string",
              "name": "description",
              "type": "string"
            },
            {
              "internalType": "string",
              "name": "imageUrl",
              "type": "string"
            },
            {
              "internalType": "string",
              "name": "name",
              "type": "string"
            },
            {
              "internalType": "bool",
              "name": "goalReached",
              "type": "bool"
            },
            {
              "internalType": "bool",
              "name": "isClosed",
              "type": "bool"
            },
            {
              "internalType": "uint256[]",
              "name": "donations",
              "type": "uint256[]"
            },
            {
              "internalType": "address[]",
              "name": "donors",
              "type": "address[]"
            }
          ],
          "internalType": "struct CrowdFunding.Campaign",
          "name": "",
          "type": "tuple"
        }
      ],
      "stateMutability": "view",
      "type": "function"
    },
    {
      "inputs": [
        {
          "internalType": "uint256",
          "name": "campaignId",
          "type": "uint256"
        }
      ],
      "name": "getDonorsAndDonations",
      "outputs": [
        {
          "internalType": "address[]",
          "name": "",
          "type": "address[]"
        },
        {
          "internalType": "uint256[]",
          "name": "",
          "type": "uint256[]"
        }
      ],
      "stateMutability": "view",
      "type": "function"
    },
    {
      "inputs": [],
      "name": "getLatestPrice",
      "outputs": [
        {
          "internalType": "int256",
          "name": "",
          "type": "int256"
        }
      ],
      "stateMutability": "view",
      "type": "function"
    },
    {
      "inputs": [
        {
          "internalType": "uint256",
          "name": "offset",
          "type": "uint256"
        },
        {
          "internalType": "uint256",
          "name": "limit",
          "type": "uint256"
        }
      ],
      "name": "getPaginatedCampaigns",
      "outputs": [
        {
          "components": [
            {
              "internalType": "address",
              "name": "creator",
              "type": "address"
            },
            {
              "internalType": "uint256",
              "name": "goal",
              "type": "uint256"
            },
            {
              "internalType": "uint256",
              "name": "min_donation",
              "type": "uint256"
            },
            {
              "internalType": "uint256",
              "name": "deadline",
              "type": "uint256"
            },
            {
              "internalType": "uint256",
              "name": "totalFunds",
              "type": "uint256"
            },
            {
              "internalType": "string",
              "name": "description",
              "type": "string"
            },
            {
              "internalType": "string",
              "name": "imageUrl",
              "type": "string"
            },
            {
              "internalType": "string",
              "name": "name",
              "type": "string"
            },
            {
              "internalType": "bool",
              "name": "goalReached",
              "type": "bool"
            },
            {
              "internalType": "bool",
              "name": "isClosed",
              "type": "bool"
            },
            {
              "internalType": "uint256[]",
              "name": "donations",
              "type": "uint256[]"
            },
            {
              "internalType": "address[]",
              "name": "donors",
              "type": "address[]"
            }
          ],
          "internalType": "struct CrowdFunding.Campaign[]",
          "name": "paginatedCampaigns",
          "type": "tuple[]"
        },
        {
          "internalType": "uint256",
          "name": "currentPage",
          "type": "uint256"
        },
        {
          "internalType": "uint256",
          "name": "totalPages",
          "type": "uint256"
        },
        {
          "internalType": "uint256",
          "name": "totalCampaigns",
          "type": "uint256"
        }
      ],
      "stateMutability": "view",
      "type": "function"
    },
    {
      "inputs": [
        {
          "internalType": "uint256",
          "name": "campaignId",
          "type": "uint256"
        }
      ],
      "name": "withdrawFunds",
      "outputs": [],
      "stateMutability": "nonpayable",
      "type": "function"
    }
  ],
  "bytecode": "0x608060405261001261008960201b60201c565b60035534801561002157600080fd5b506040516144273803806144278339818101604052810190610043919061019f565b806000806101000a81548173ffffffffffffffffffffffffffffffffffffffff021916908373ffffffffffffffffffffffffffffffffffffffff160217905550506103bd565b60008060008054906101000a900473ffffffffffffffffffffffffffffffffffffffff1673ffffffffffffffffffffffffffffffffffffffff1663feaf968c6040518163ffffffff1660e01b815260040160a060405180830381865afa1580156100f7573d6000803e3d6000fd5b505050506040513d601f19601f8201168201806040525081019061011b919061027a565b5050509150506000620f4240826101329190610353565b9050809250505090565b600080fd5b600073ffffffffffffffffffffffffffffffffffffffff82169050919050565b600061016c82610141565b9050919050565b61017c81610161565b811461018757600080fd5b50565b60008151905061019981610173565b92915050565b6000602082840312156101b5576101b461013c565b5b60006101c38482850161018a565b91505092915050565b600069ffffffffffffffffffff82169050919050565b6101eb816101cc565b81146101f657600080fd5b50565b600081519050610208816101e2565b92915050565b6000819050919050565b6102218161020e565b811461022c57600080fd5b50565b60008151905061023e81610218565b92915050565b6000819050919050565b61025781610244565b811461026257600080fd5b50565b6000815190506102748161024e565b92915050565b600080600080600060a086880312156102965761029561013c565b5b60006102a4888289016101f9565b95505060206102b58882890161022f565b94505060406102c688828901610265565b93505060606102d788828901610265565b92505060806102e8888289016101f9565b9150509295509295909350565b7f4e487b7100000000000000000000000000000000000000000000000000000000600052601260045260246000fd5b7f4e487b7100000000000000000000000000000000000000000000000000000000600052601160045260246000fd5b600061035e8261020e565b91506103698361020e565b925082610379576103786102f5565b5b600160000383147f8000000000000000000000000000000000000000000000000000000000000000831416156103b2576103b1610324565b5b828205905092915050565b61405b806103cc6000396000f3fe6080604052600436106100e85760003560e01c806371a236981161008a578063c1cbbca711610059578063c1cbbca714610342578063d8916bb91461035e578063df1902631461039b578063f8a31394146103d8576100e8565b806371a236981461025f57806385349b9c1461029d5780638e15f473146102da578063b369359d14610305576100e8565b806325b0e5a2116100c657806325b0e5a2146101a25780632cc812bc146101e25780635b7baf641461020d5780636b047df414610236576100e8565b8063141961bc146100ed578063155dd5ee14610133578063195e9a341461015c575b600080fd5b3480156100f957600080fd5b50610114600480360381019061010f9190612658565b610415565b60405161012a9a99989796959493929190612780565b60405180910390f35b34801561013f57600080fd5b5061015a60048036038101906101559190612658565b61064b565b005b34801561016857600080fd5b50610183600480360381019061017e919061285d565b610938565b6040516101999a99989796959493929190612780565b60405180910390f35b3480156101ae57600080fd5b506101c960048036038101906101c4919061288a565b610b5e565b6040516101d99493929190612c81565b60405180910390f35b3480156101ee57600080fd5b506101f76112ab565b6040516102049190612ce6565b60405180910390f35b34801561021957600080fd5b50610234600480360381019061022f9190612658565b6112b1565b005b34801561024257600080fd5b5061025d60048036038101906102589190612e36565b61161e565b005b34801561026b57600080fd5b5061028660048036038101906102819190612658565b611b18565b604051610294929190612ff5565b60405180910390f35b3480156102a957600080fd5b506102c460048036038101906102bf9190612658565b611c2d565b6040516102d1919061302c565b60405180910390f35b3480156102e657600080fd5b506102ef611cbc565b6040516102fc9190612ce6565b60405180910390f35b34801561031157600080fd5b5061032c60048036038101906103279190612658565b611d6f565b604051610339919061302c565b60405180910390f35b61035c60048036038101906103579190612658565b611d93565b005b34801561036a57600080fd5b5061038560048036038101906103809190612658565b61201f565b604051610392919061302c565b60405180910390f35b3480156103a757600080fd5b506103c260048036038101906103bd9190612658565b61203c565b6040516103cf919061302c565b60405180910390f35b3480156103e457600080fd5b506103ff60048036038101906103fa9190612658565b6120cb565b60405161040c9190613167565b60405180910390f35b6001818154811061042557600080fd5b90600052602060002090600b02016000915090508060000160009054906101000a900473ffffffffffffffffffffffffffffffffffffffff1690806001015490806002015490806003015490806004015490806005018054610486906131b8565b80601f01602080910402602001604051908101604052809291908181526020018280546104b2906131b8565b80156104ff5780601f106104d4576101008083540402835291602001916104ff565b820191906000526020600020905b8154815290600101906020018083116104e257829003601f168201915b505050505090806006018054610514906131b8565b80601f0160208091040260200160405190810160405280929190818152602001828054610540906131b8565b801561058d5780601f106105625761010080835404028352916020019161058d565b820191906000526020600020905b81548152906001019060200180831161057057829003601f168201915b5050505050908060070180546105a2906131b8565b80601f01602080910402602001604051908101604052809291908181526020018280546105ce906131b8565b801561061b5780601f106105f05761010080835404028352916020019161061b565b820191906000526020600020905b8154815290600101906020018083116105fe57829003601f168201915b5050505050908060080160009054906101000a900460ff16908060080160019054906101000a900460ff1690508a565b803373ffffffffffffffffffffffffffffffffffffffff1660018281548110610677576106766131e9565b5b90600052602060002090600b020160000160009054906101000a900473ffffffffffffffffffffffffffffffffffffffff1673ffffffffffffffffffffffffffffffffffffffff16146106ff576040517f08c379a00000000000000000000000000000000000000000000000000000000081526004016106f69061328a565b60405180910390fd5b600060018381548110610715576107146131e9565b5b90600052602060002090600b020190508060080160009054906101000a900460ff16610776576040517f08c379a000000000000000000000000000000000000000000000000000000000815260040161076d906132f6565b60405180910390fd5b8060080160019054906101000a900460ff16156107c8576040517f08c379a00000000000000000000000000000000000000000000000000000000081526004016107bf90613362565b60405180910390fd5b60018160080160016101000a81548160ff021916908315150217905550600081600401549050600082600401819055506000826003018190555060008260000160009054906101000a900473ffffffffffffffffffffffffffffffffffffffff1673ffffffffffffffffffffffffffffffffffffffff168260405161084c906133b3565b60006040518083038185875af1925050503d8060008114610889576040519150601f19603f3d011682016040523d82523d6000602084013e61088e565b606091505b50509050806108d2576040517f08c379a00000000000000000000000000000000000000000000000000000000081526004016108c990613414565b60405180910390fd5b7ff440aec6b52895984d061d622e6edeba6210f7c3e059be920663140c084560d7858460000160009054906101000a900473ffffffffffffffffffffffffffffffffffffffff168460405161092993929190613434565b60405180910390a15050505050565b60046020528060005260406000206000915090508060000160009054906101000a900473ffffffffffffffffffffffffffffffffffffffff1690806001015490806002015490806003015490806004015490806005018054610999906131b8565b80601f01602080910402602001604051908101604052809291908181526020018280546109c5906131b8565b8015610a125780601f106109e757610100808354040283529160200191610a12565b820191906000526020600020905b8154815290600101906020018083116109f557829003601f168201915b505050505090806006018054610a27906131b8565b80601f0160208091040260200160405190810160405280929190818152602001828054610a53906131b8565b8015610aa05780601f10610a7557610100808354040283529160200191610aa0565b820191906000526020600020905b815481529060010190602001808311610a8357829003601f168201915b505050505090806007018054610ab5906131b8565b80601f0160208091040260200160405190810160405280929190818152602001828054610ae1906131b8565b8015610b2e5780601f10610b0357610100808354040283529160200191610b2e565b820191906000526020600020905b815481529060010190602001808311610b1157829003601f168201915b5050505050908060080160009054906101000a900460ff16908060080160019054906101000a900460ff1690508a565b60606000806000806000905060005b600180549050811015610be457600060018281548110610b9057610b8f6131e9565b5b90600052602060002090600b020190508060080160019054906101000a900460ff16158015610bc25750806003015442105b15610bd6578280610bd29061349a565b9350505b508080600101915050610b6d565b50808710610c27576040517f08c379a0000000000000000000000000000000000000000000000000000000008152600401610c1e9061352e565b60405180910390fd5b8091508582610c36919061357d565b925060008683610c4691906135ae565b14610c5a578280610c569061349a565b9350505b60018688610c68919061357d565b610c7291906135df565b935060008167ffffffffffffffff811115610c9057610c8f612d0b565b5b604051908082528060200260200182016040528015610cc957816020015b610cb661249f565b815260200190600190039081610cae5790505b5090506000805b6001805490508110156110c257600060018281548110610cf357610cf26131e9565b5b90600052602060002090600b020190508060080160019054906101000a900460ff16158015610d255750806003015442105b156110b45780604051806101800160405290816000820160009054906101000a900473ffffffffffffffffffffffffffffffffffffffff1673ffffffffffffffffffffffffffffffffffffffff1673ffffffffffffffffffffffffffffffffffffffff16815260200160018201548152602001600282015481526020016003820154815260200160048201548152602001600582018054610dc5906131b8565b80601f0160208091040260200160405190810160405280929190818152602001828054610df1906131b8565b8015610e3e5780601f10610e1357610100808354040283529160200191610e3e565b820191906000526020600020905b815481529060010190602001808311610e2157829003601f168201915b50505050508152602001600682018054610e57906131b8565b80601f0160208091040260200160405190810160405280929190818152602001828054610e83906131b8565b8015610ed05780601f10610ea557610100808354040283529160200191610ed0565b820191906000526020600020905b815481529060010190602001808311610eb357829003601f168201915b50505050508152602001600782018054610ee9906131b8565b80601f0160208091040260200160405190810160405280929190818152602001828054610f15906131b8565b8015610f625780601f10610f3757610100808354040283529160200191610f62565b820191906000526020600020905b815481529060010190602001808311610f4557829003601f168201915b505050505081526020016008820160009054906101000a900460ff161515151581526020016008820160019054906101000a900460ff1615151515815260200160098201805480602002602001604051908101604052809291908181526020018280548015610ff057602002820191906000526020600020905b815481526020019060010190808311610fdc575b50505050508152602001600a820180548060200260200160405190810160405280929190818152602001828054801561107e57602002820191906000526020600020905b8160009054906101000a900473ffffffffffffffffffffffffffffffffffffffff1673ffffffffffffffffffffffffffffffffffffffff1681526020019060010190808311611034575b50505050508152505084848151811061109a576110996131e9565b5b602002602001018190525082806110b09061349a565b9350505b508080600101915050610cd0565b5060005b838110156111c05760006001826110dd91906135df565b90505b848110156111b2578381815181106110fb576110fa6131e9565b5b60200260200101516060015184838151811061111a576111196131e9565b5b60200260200101516060015111156111a5576000848381518110611141576111406131e9565b5b6020026020010151905084828151811061115e5761115d6131e9565b5b6020026020010151858481518110611179576111786131e9565b5b602002602001018190525080858381518110611198576111976131e9565b5b6020026020010181905250505b80806001019150506110e0565b5080806001019150506110c6565b506000888a6111cf91906135df565b9050848111156111dd578490505b89816111e99190613613565b67ffffffffffffffff81111561120257611201612d0b565b5b60405190808252806020026020018201604052801561123b57816020015b61122861249f565b8152602001906001900390816112205790505b50975060008a90505b8181101561129d5783818151811061125f5761125e6131e9565b5b6020026020010151898c836112749190613613565b81518110611285576112846131e9565b5b60200260200101819052508080600101915050611244565b505050505092959194509250565b60035481565b60018054905081106112f8576040517f08c379a00000000000000000000000000000000000000000000000000000000081526004016112ef90613693565b60405180910390fd5b60006001828154811061130e5761130d6131e9565b5b90600052602060002090600b020190508060030154421015611365576040517f08c379a000000000000000000000000000000000000000000000000000000000815260040161135c906136ff565b60405180910390fd5b8060080160009054906101000a900460ff16156113b7576040517f08c379a00000000000000000000000000000000000000000000000000000000081526004016113ae9061376b565b60405180910390fd5b8060080160019054906101000a900460ff1615611409576040517f08c379a000000000000000000000000000000000000000000000000000000000815260040161140090613362565b60405180910390fd5b60008060005b83600a01805490508110156114f7573373ffffffffffffffffffffffffffffffffffffffff1684600a01828154811061144b5761144a6131e9565b5b9060005260206000200160009054906101000a900473ffffffffffffffffffffffffffffffffffffffff1673ffffffffffffffffffffffffffffffffffffffff16036114ea57600192508360090181815481106114ab576114aa6131e9565b5b9060005260206000200154826114c191906135df565b915060008460090182815481106114db576114da6131e9565b5b90600052602060002001819055505b808060010191505061140f565b5081611538576040517f08c379a000000000000000000000000000000000000000000000000000000000815260040161152f906137fd565b60405180910390fd5b6000811161157b576040517f08c379a000000000000000000000000000000000000000000000000000000000815260040161157290613869565b60405180910390fd5b3373ffffffffffffffffffffffffffffffffffffffff166108fc829081150290604051600060405180830381858888f193505050501580156115c1573d6000803e3d6000fd5b50808360040160008282546115d69190613613565b925050819055507ff3f402280ef0a7905e124aa621b65eaeb2725c343e8b36d398ed78c29daf285c84338360405161161093929190613434565b60405180910390a150505050565b60008411611661576040517f08c379a0000000000000000000000000000000000000000000000000000000008152600401611658906138d5565b60405180910390fd5b600083116116a4576040517f08c379a000000000000000000000000000000000000000000000000000000000815260040161169b90613941565b60405180910390fd5b600083426116b291906135df565b905060006040518061018001604052803373ffffffffffffffffffffffffffffffffffffffff1681526020016116e78861201f565b815260200185815260200183815260200160008152602001888152602001848152602001898152602001600015158152602001600015158152602001600067ffffffffffffffff81111561173e5761173d612d0b565b5b60405190808252806020026020018201604052801561176c5781602001602082028036833780820191505090505b508152602001600067ffffffffffffffff81111561178d5761178c612d0b565b5b6040519080825280602002602001820160405280156117bb5781602001602082028036833780820191505090505b50815250905060018190806001815401808255809150506001900390600052602060002090600b020160009091909190915060008201518160000160006101000a81548173ffffffffffffffffffffffffffffffffffffffff021916908373ffffffffffffffffffffffffffffffffffffffff1602179055506020820151816001015560408201518160020155606082015181600301556080820151816004015560a08201518160050190816118719190613b0d565b5060c08201518160060190816118879190613b0d565b5060e082015181600701908161189d9190613b0d565b506101008201518160080160006101000a81548160ff0219169083151502179055506101208201518160080160016101000a81548160ff0219169083151502179055506101408201518160090190805190602001906118fd92919061251a565b5061016082015181600a01908051906020019061191b929190612567565b50505080600460003373ffffffffffffffffffffffffffffffffffffffff1673ffffffffffffffffffffffffffffffffffffffff16815260200190815260200160002060008201518160000160006101000a81548173ffffffffffffffffffffffffffffffffffffffff021916908373ffffffffffffffffffffffffffffffffffffffff1602179055506020820151816001015560408201518160020155606082015181600301556080820151816004015560a08201518160050190816119e29190613b0d565b5060c08201518160060190816119f89190613b0d565b5060e0820151816007019081611a0e9190613b0d565b506101008201518160080160006101000a81548160ff0219169083151502179055506101208201518160080160016101000a81548160ff021916908315150217905550610140820151816009019080519060200190611a6e92919061251a565b5061016082015181600a019080519060200190611a8c929190612567565b50905050600060018080549050611aa39190613613565b905060028190806001815401808255809150506001900390600052602060002001600090919091909150557f2e64da7e06e88ccd84d69eccb21119ca81e40e5648611e89edfe888c8fa62597813389868c604051611b05959493929190613bdf565b60405180910390a1505050505050505050565b606080600060018481548110611b3157611b306131e9565b5b90600052602060002090600b0201905080600a018160090181805480602002602001604051908101604052809291908181526020018280548015611bca57602002820191906000526020600020905b8160009054906101000a900473ffffffffffffffffffffffffffffffffffffffff1673ffffffffffffffffffffffffffffffffffffffff1681526020019060010190808311611b80575b5050505050915080805480602002602001604051908101604052809291908181526020018280548015611c1c57602002820191906000526020600020905b815481526020019060010190808311611c08575b505050505090509250925050915091565b600080611c38611cbc565b905060008113611c7d576040517f08c379a0000000000000000000000000000000000000000000000000000000008152600401611c7490613c85565b60405180910390fd5b600081606485611c8d9190613ca5565b611c97919061357d565b90506000670de0b6b3a764000082611caf9190613ca5565b9050809350505050919050565b60008060008054906101000a900473ffffffffffffffffffffffffffffffffffffffff1673ffffffffffffffffffffffffffffffffffffffff1663feaf968c6040518163ffffffff1660e01b815260040160a060405180830381865afa158015611d2a573d6000803e3d6000fd5b505050506040513d601f19601f82011682018060405250810190611d4e9190613d6a565b5050509150506000620f424082611d659190613de5565b9050809250505090565b60028181548110611d7f57600080fd5b906000526020600020016000915090505481565b806001805490508110611ddb576040517f08c379a0000000000000000000000000000000000000000000000000000000008152600401611dd290613693565b60405180910390fd5b60018181548110611def57611dee6131e9565b5b90600052602060002090600b0201600301544210611e42576040517f08c379a0000000000000000000000000000000000000000000000000000000008152600401611e3990613e9b565b60405180910390fd5b600060018381548110611e5857611e576131e9565b5b90600052602060002090600b02019050611e758160020154611c2d565b3411611eb6576040517f08c379a0000000000000000000000000000000000000000000000000000000008152600401611ead90613f2d565b60405180910390fd5b8060080160009054906101000a900460ff16611f07576040517f08c379a0000000000000000000000000000000000000000000000000000000008152600401611efe90613f99565b60405180910390fd5b34816004016000828254611f1b91906135df565b925050819055508060090134908060018154018082558091505060019003906000526020600020016000909190919091505580600a01339080600181540180825580915050600190039060005260206000200160009091909190916101000a81548173ffffffffffffffffffffffffffffffffffffffff021916908373ffffffffffffffffffffffffffffffffffffffff1602179055507fe555da28bdb778f65d22794d88927ebaeca03f7de9d1b7d39245bc8fb5ca078a833334604051611fe593929190613434565b60405180910390a1806001015481600401541061201a5760018160080160006101000a81548160ff0219169083151502179055505b505050565b6000670de0b6b3a7640000826120359190613ca5565b9050919050565b600080612047611cbc565b90506000811361208c576040517f08c379a000000000000000000000000000000000000000000000000000000000815260040161208390613c85565b60405180910390fd5b6000670de0b6b3a7640000846120a2919061357d565b90506000606483836120b49190613ca5565b6120be919061357d565b9050809350505050919050565b6120d361249f565b600180549050821061211a576040517f08c379a000000000000000000000000000000000000000000000000000000000815260040161211190614005565b60405180910390fd5b6001828154811061212e5761212d6131e9565b5b90600052602060002090600b0201604051806101800160405290816000820160009054906101000a900473ffffffffffffffffffffffffffffffffffffffff1673ffffffffffffffffffffffffffffffffffffffff1673ffffffffffffffffffffffffffffffffffffffff168152602001600182015481526020016002820154815260200160038201548152602001600482015481526020016005820180546121d6906131b8565b80601f0160208091040260200160405190810160405280929190818152602001828054612202906131b8565b801561224f5780601f106122245761010080835404028352916020019161224f565b820191906000526020600020905b81548152906001019060200180831161223257829003601f168201915b50505050508152602001600682018054612268906131b8565b80601f0160208091040260200160405190810160405280929190818152602001828054612294906131b8565b80156122e15780601f106122b6576101008083540402835291602001916122e1565b820191906000526020600020905b8154815290600101906020018083116122c457829003601f168201915b505050505081526020016007820180546122fa906131b8565b80601f0160208091040260200160405190810160405280929190818152602001828054612326906131b8565b80156123735780601f1061234857610100808354040283529160200191612373565b820191906000526020600020905b81548152906001019060200180831161235657829003601f168201915b505050505081526020016008820160009054906101000a900460ff161515151581526020016008820160019054906101000a900460ff161515151581526020016009820180548060200260200160405190810160405280929190818152602001828054801561240157602002820191906000526020600020905b8154815260200190600101908083116123ed575b50505050508152602001600a820180548060200260200160405190810160405280929190818152602001828054801561248f57602002820191906000526020600020905b8160009054906101000a900473ffffffffffffffffffffffffffffffffffffffff1673ffffffffffffffffffffffffffffffffffffffff1681526020019060010190808311612445575b5050505050815250509050919050565b604051806101800160405280600073ffffffffffffffffffffffffffffffffffffffff1681526020016000815260200160008152602001600081526020016000815260200160608152602001606081526020016060815260200160001515815260200160001515815260200160608152602001606081525090565b828054828255906000526020600020908101928215612556579160200282015b8281111561255557825182559160200191906001019061253a565b5b50905061256391906125f1565b5090565b8280548282559060005260206000209081019282156125e0579160200282015b828111156125df5782518260006101000a81548173ffffffffffffffffffffffffffffffffffffffff021916908373ffffffffffffffffffffffffffffffffffffffff16021790555091602001919060010190612587565b5b5090506125ed91906125f1565b5090565b5b8082111561260a5760008160009055506001016125f2565b5090565b6000604051905090565b600080fd5b600080fd5b6000819050919050565b61263581612622565b811461264057600080fd5b50565b6000813590506126528161262c565b92915050565b60006020828403121561266e5761266d612618565b5b600061267c84828501612643565b91505092915050565b600073ffffffffffffffffffffffffffffffffffffffff82169050919050565b60006126b082612685565b9050919050565b6126c0816126a5565b82525050565b6126cf81612622565b82525050565b600081519050919050565b600082825260208201905092915050565b60005b8381101561270f5780820151818401526020810190506126f4565b60008484015250505050565b6000601f19601f8301169050919050565b6000612737826126d5565b61274181856126e0565b93506127518185602086016126f1565b61275a8161271b565b840191505092915050565b60008115159050919050565b61277a81612765565b82525050565b600061014082019050612796600083018d6126b7565b6127a3602083018c6126c6565b6127b0604083018b6126c6565b6127bd606083018a6126c6565b6127ca60808301896126c6565b81810360a08301526127dc818861272c565b905081810360c08301526127f0818761272c565b905081810360e0830152612804818661272c565b9050612814610100830185612771565b612822610120830184612771565b9b9a5050505050505050505050565b61283a816126a5565b811461284557600080fd5b50565b60008135905061285781612831565b92915050565b60006020828403121561287357612872612618565b5b600061288184828501612848565b91505092915050565b600080604083850312156128a1576128a0612618565b5b60006128af85828601612643565b92505060206128c085828601612643565b9150509250929050565b600081519050919050565b600082825260208201905092915050565b6000819050602082019050919050565b6128ff816126a5565b82525050565b61290e81612622565b82525050565b600082825260208201905092915050565b6000612930826126d5565b61293a8185612914565b935061294a8185602086016126f1565b6129538161271b565b840191505092915050565b61296781612765565b82525050565b600081519050919050565b600082825260208201905092915050565b6000819050602082019050919050565b60006129a58383612905565b60208301905092915050565b6000602082019050919050565b60006129c98261296d565b6129d38185612978565b93506129de83612989565b8060005b83811015612a0f5781516129f68882612999565b9750612a01836129b1565b9250506001810190506129e2565b5085935050505092915050565b600081519050919050565b600082825260208201905092915050565b6000819050602082019050919050565b6000612a5483836128f6565b60208301905092915050565b6000602082019050919050565b6000612a7882612a1c565b612a828185612a27565b9350612a8d83612a38565b8060005b83811015612abe578151612aa58882612a48565b9750612ab083612a60565b925050600181019050612a91565b5085935050505092915050565b600061018083016000830151612ae460008601826128f6565b506020830151612af76020860182612905565b506040830151612b0a6040860182612905565b506060830151612b1d6060860182612905565b506080830151612b306080860182612905565b5060a083015184820360a0860152612b488282612925565b91505060c083015184820360c0860152612b628282612925565b91505060e083015184820360e0860152612b7c8282612925565b915050610100830151612b9361010086018261295e565b50610120830151612ba861012086018261295e565b50610140830151848203610140860152612bc282826129be565b915050610160830151848203610160860152612bde8282612a6d565b9150508091505092915050565b6000612bf78383612acb565b905092915050565b6000602082019050919050565b6000612c17826128ca565b612c2181856128d5565b935083602082028501612c33856128e6565b8060005b85811015612c6f5784840389528151612c508582612beb565b9450612c5b83612bff565b925060208a01995050600181019050612c37565b50829750879550505050505092915050565b60006080820190508181036000830152612c9b8187612c0c565b9050612caa60208301866126c6565b612cb760408301856126c6565b612cc460608301846126c6565b95945050505050565b6000819050919050565b612ce081612ccd565b82525050565b6000602082019050612cfb6000830184612cd7565b92915050565b600080fd5b600080fd5b7f4e487b7100000000000000000000000000000000000000000000000000000000600052604160045260246000fd5b612d438261271b565b810181811067ffffffffffffffff82111715612d6257612d61612d0b565b5b80604052505050565b6000612d7561260e565b9050612d818282612d3a565b919050565b600067ffffffffffffffff821115612da157612da0612d0b565b5b612daa8261271b565b9050602081019050919050565b82818337600083830152505050565b6000612dd9612dd484612d86565b612d6b565b905082815260208101848484011115612df557612df4612d06565b5b612e00848285612db7565b509392505050565b600082601f830112612e1d57612e1c612d01565b5b8135612e2d848260208601612dc6565b91505092915050565b60008060008060008060c08789031215612e5357612e52612618565b5b600087013567ffffffffffffffff811115612e7157612e7061261d565b5b612e7d89828a01612e08565b965050602087013567ffffffffffffffff811115612e9e57612e9d61261d565b5b612eaa89828a01612e08565b9550506040612ebb89828a01612643565b9450506060612ecc89828a01612643565b9350506080612edd89828a01612643565b92505060a087013567ffffffffffffffff811115612efe57612efd61261d565b5b612f0a89828a01612e08565b9150509295509295509295565b600082825260208201905092915050565b6000612f3382612a1c565b612f3d8185612f17565b9350612f4883612a38565b8060005b83811015612f79578151612f608882612a48565b9750612f6b83612a60565b925050600181019050612f4c565b5085935050505092915050565b600082825260208201905092915050565b6000612fa28261296d565b612fac8185612f86565b9350612fb783612989565b8060005b83811015612fe8578151612fcf8882612999565b9750612fda836129b1565b925050600181019050612fbb565b5085935050505092915050565b6000604082019050818103600083015261300f8185612f28565b905081810360208301526130238184612f97565b90509392505050565b600060208201905061304160008301846126c6565b92915050565b60006101808301600083015161306060008601826128f6565b5060208301516130736020860182612905565b5060408301516130866040860182612905565b5060608301516130996060860182612905565b5060808301516130ac6080860182612905565b5060a083015184820360a08601526130c48282612925565b91505060c083015184820360c08601526130de8282612925565b91505060e083015184820360e08601526130f88282612925565b91505061010083015161310f61010086018261295e565b5061012083015161312461012086018261295e565b5061014083015184820361014086015261313e82826129be565b91505061016083015184820361016086015261315a8282612a6d565b9150508091505092915050565b600060208201905081810360008301526131818184613047565b905092915050565b7f4e487b7100000000000000000000000000000000000000000000000000000000600052602260045260246000fd5b600060028204905060018216806131d057607f821691505b6020821081036131e3576131e2613189565b5b50919050565b7f4e487b7100000000000000000000000000000000000000000000000000000000600052603260045260246000fd5b7f4f6e6c79207468652063616d706169676e2063726561746f722063616e20706560008201527f72666f726d207468697320616374696f6e000000000000000000000000000000602082015250565b60006132746031836126e0565b915061327f82613218565b604082019050919050565b600060208201905081810360008301526132a381613267565b9050919050565b7f476f616c206e6f74207265616368656400000000000000000000000000000000600082015250565b60006132e06010836126e0565b91506132eb826132aa565b602082019050919050565b6000602082019050818103600083015261330f816132d3565b9050919050565b7f43616d706169676e20697320636c6f7365640000000000000000000000000000600082015250565b600061334c6012836126e0565b915061335782613316565b602082019050919050565b6000602082019050818103600083015261337b8161333f565b9050919050565b600081905092915050565b50565b600061339d600083613382565b91506133a88261338d565b600082019050919050565b60006133be82613390565b9150819050919050565b7f4661696c656420746f2073656e64204574686572000000000000000000000000600082015250565b60006133fe6014836126e0565b9150613409826133c8565b602082019050919050565b6000602082019050818103600083015261342d816133f1565b9050919050565b600060608201905061344960008301866126c6565b61345660208301856126b7565b61346360408301846126c6565b949350505050565b7f4e487b7100000000000000000000000000000000000000000000000000000000600052601160045260246000fd5b60006134a582612622565b91507fffffffffffffffffffffffffffffffffffffffffffffffffffffffffffffffff82036134d7576134d661346b565b5b600182019050919050565b7f4f6666736574206f7574206f6620626f756e6473000000000000000000000000600082015250565b60006135186014836126e0565b9150613523826134e2565b602082019050919050565b600060208201905081810360008301526135478161350b565b9050919050565b7f4e487b7100000000000000000000000000000000000000000000000000000000600052601260045260246000fd5b600061358882612622565b915061359383612622565b9250826135a3576135a261354e565b5b828204905092915050565b60006135b982612622565b91506135c483612622565b9250826135d4576135d361354e565b5b828206905092915050565b60006135ea82612622565b91506135f583612622565b925082820190508082111561360d5761360c61346b565b5b92915050565b600061361e82612622565b915061362983612622565b92508282039050818111156136415761364061346b565b5b92915050565b7f43616d706169676e20646f6573206e6f74206578697374000000000000000000600082015250565b600061367d6017836126e0565b915061368882613647565b602082019050919050565b600060208201905081810360008301526136ac81613670565b9050919050565b7f43616d706169676e20646561646c696e65206e6f742072656163686564000000600082015250565b60006136e9601d836126e0565b91506136f4826136b3565b602082019050919050565b60006020820190508181036000830152613718816136dc565b9050919050565b7f476f616c20686173206265656e20726561636865640000000000000000000000600082015250565b60006137556015836126e0565b91506137608261371f565b602082019050919050565b6000602082019050818103600083015261378481613748565b9050919050565b7f596f7520646964206e6f7420646f6e61746520746f20746869732063616d706160008201527f69676e0000000000000000000000000000000000000000000000000000000000602082015250565b60006137e76023836126e0565b91506137f28261378b565b604082019050919050565b60006020820190508181036000830152613816816137da565b9050919050565b7f596f752068617665206e6f20646f6e6174696f6e20746f20726566756e640000600082015250565b6000613853601e836126e0565b915061385e8261381d565b602082019050919050565b6000602082019050818103600083015261388281613846565b9050919050565b7f476f616c206d7573742062652067726561746572207468616e20300000000000600082015250565b60006138bf601b836126e0565b91506138ca82613889565b602082019050919050565b600060208201905081810360008301526138ee816138b2565b9050919050565b7f4475726174696f6e206d7573742062652067726561746572207468616e203000600082015250565b600061392b601f836126e0565b9150613936826138f5565b602082019050919050565b6000602082019050818103600083015261395a8161391e565b9050919050565b60008190508160005260206000209050919050565b60006020601f8301049050919050565b600082821b905092915050565b6000600883026139c37fffffffffffffffffffffffffffffffffffffffffffffffffffffffffffffffff82613986565b6139cd8683613986565b95508019841693508086168417925050509392505050565b6000819050919050565b6000613a0a613a05613a0084612622565b6139e5565b612622565b9050919050565b6000819050919050565b613a24836139ef565b613a38613a3082613a11565b848454613993565b825550505050565b600090565b613a4d613a40565b613a58818484613a1b565b505050565b5b81811015613a7c57613a71600082613a45565b600181019050613a5e565b5050565b601f821115613ac157613a9281613961565b613a9b84613976565b81016020851015613aaa578190505b613abe613ab685613976565b830182613a5d565b50505b505050565b600082821c905092915050565b6000613ae460001984600802613ac6565b1980831691505092915050565b6000613afd8383613ad3565b9150826002028217905092915050565b613b16826126d5565b67ffffffffffffffff811115613b2f57613b2e612d0b565b5b613b3982546131b8565b613b44828285613a80565b600060209050601f831160018114613b775760008415613b65578287015190505b613b6f8582613af1565b865550613bd7565b601f198416613b8586613961565b60005b82811015613bad57848901518255600182019150602085019450602081019050613b88565b86831015613bca5784890151613bc6601f891682613ad3565b8355505b6001600288020188555050505b505050505050565b600060a082019050613bf460008301886126c6565b613c0160208301876126b7565b613c0e60408301866126c6565b613c1b60608301856126c6565b8181036080830152613c2d818461272c565b90509695505050505050565b7f4661696c656420746f2066657463682045544820707269636500000000000000600082015250565b6000613c6f6019836126e0565b9150613c7a82613c39565b602082019050919050565b60006020820190508181036000830152613c9e81613c62565b9050919050565b6000613cb082612622565b9150613cbb83612622565b9250828202613cc981612622565b91508282048414831517613ce057613cdf61346b565b5b5092915050565b600069ffffffffffffffffffff82169050919050565b613d0681613ce7565b8114613d1157600080fd5b50565b600081519050613d2381613cfd565b92915050565b613d3281612ccd565b8114613d3d57600080fd5b50565b600081519050613d4f81613d29565b92915050565b600081519050613d648161262c565b92915050565b600080600080600060a08688031215613d8657613d85612618565b5b6000613d9488828901613d14565b9550506020613da588828901613d40565b9450506040613db688828901613d55565b9350506060613dc788828901613d55565b9250506080613dd888828901613d14565b9150509295509295909350565b6000613df082612ccd565b9150613dfb83612ccd565b925082613e0b57613e0a61354e565b5b600160000383147f800000000000000000000000000000000000000000000000000000000000000083141615613e4457613e4361346b565b5b828205905092915050565b7f43616d706169676e20646561646c696e65206861732070617373656400000000600082015250565b6000613e85601c836126e0565b9150613e9082613e4f565b602082019050919050565b60006020820190508181036000830152613eb481613e78565b9050919050565b7f436f6e747269627574696f6e206d75737420626520677265617465722074686160008201527f6e20300000000000000000000000000000000000000000000000000000000000602082015250565b6000613f176023836126e0565b9150613f2282613ebb565b604082019050919050565b60006020820190508181036000830152613f4681613f0a565b9050919050565b7f476f616c20726561636865640000000000000000000000000000000000000000600082015250565b6000613f83600c836126e0565b9150613f8e82613f4d565b602082019050919050565b60006020820190508181036000830152613fb281613f76565b9050919050565b7f43616d706169676e20696e646578206f7574206f6620626f756e647300000000600082015250565b6000613fef601c836126e0565b9150613ffa82613fb9565b602082019050919050565b6000602082019050818103600083015261401e81613fe2565b905091905056fea2646970667358221220be8b8e0297406ab418cfb169d685bc989471323bc2bd6a34180bf6744ab2968464736f6c634300081c0033",
  "linkReferences": {},
  "deployedLinkReferences": {}
}